:020000040800F2
:10000000F8050020C5010008A31600081B1600080B
:10001000A1160008970700083D1A0008000000001C
:10002000000000000000000000000000A71600080B
:100030009907000800000000A5160008A91600088E
:10004000DF010008DF010008DF010008DF01000810
:10005000DF010008DF010008DF010008DF01000800
:10006000DF010008DF010008DF010008DF010008F0
:10007000DF010008DF010008DF010008DF010008E0
:10008000DF010008DF010008DF010008DF010008D0
:10009000DF010008DF010008DF010008DF010008C0
:1000A000DF010008DF010008DF010008DF010008B0
:1000B000DF010008DF010008DF010008DF010008A0
:1000C000DF010008DF010008DF010008DF01000890
:1000D000DF010008DF010008DF010008311A000815
:1000E000DF010008DF010008DF010008DF01000870
:1000F000DF010008DF010008DF010008DF01000860
:10010000DF010008DF010008DF010008DF0100084F
:10011000DF010008DF010008DF010008DF0100083F
:10012000DF010008DF010008DF010008DF0100082F
:10013000DF010008DF010008DF010008DF0100081F
:10014000DF010008DF010008DF010008DF0100080F
:10015000DF010008DF010008DF010008DF010008FF
:10016000DF010008DF010008DF010008DF010008EF
:10017000DF010008DF010008DF01000800000000C7
:10018000DF010008DF010008DF010008DF010008CF
:10019000DF010008DF010008DF010008DF010008BF
:1001A0000000000000000000DF010008DFF810D0B0
:1001B00000F070FA0048004765260008AFF30080A1
:1001C000F80500200648804706480047FEE7FEE79E
:1001D000FEE7FEE7FEE7FEE7FEE7FEE7FEE7FEE7F7
:1001E0004D170008AD0100082DE9F05F054600201D
:1001F00092469B4688460646814640241BE0284698
:1002000041464746224600F07CF853465A46C01AFB
:10021000914110D311461846224600F063F82D1A7A
:1002200067EB01084F4622460120002100F05AF8F2
:1002300017EB00094E41201EA4F10104DFDC484603
:1002400031462A464346BDE8F09F40EA01039B073A
:1002500003D009E008C9121F08C0042AFAD203E03B
:1002600011F8013B00F8013B521EF9D27047D2B29F
:1002700001E000F8012B491EFBD270470022F6E78F
:1002800010B513460A4604461946FFF7F0FF20460C
:1002900010BD00F0004230F000400AD0C10D01F561
:1002A0006071C0F3160042EA0151C20840071143D1
:1002B000704700200146704730B50B4601460020CC
:1002C0002022012409E021FA02F59D4205D303FA18
:1002D00002F5491B04FA02F52844151EA2F1010299
:1002E000F1DC30BD202A04DB203A00FA02F10020C4
:1002F00070479140C2F1200320FA03F31943904064
:100300007047202A04DB203A21FA02F000217047CE
:1003100021FA02F3D040C2F120029140084319466D
:1003200070472DE9FE4F804681EA0300C00F0C465E
:10033000009021F0004123F00045B8EB0200A941F4
:1003400005D24046214690461C460B46024623F005
:100350000040104347D0270DC7F30A00C3F30A51EA
:100360000290401A019040286BDAC3F3130040F466
:10037000801B0098924620B10023D2EB030A63EB66
:100380000B0B01985946C0F140025046FFF7AAFFF7
:1003900006460D4650465946019A00F08DF910EB7D
:1003A00008006141002487EA115284EAE7731A4386
:1003B00040D0009A62B3019A012A4FEA075215DC35
:1003C000001B61EB02014FF0004202EA0752CDE947
:1003D0000042001C41F5801132462B4600F08DF999
:1003E00003B0BDE8F08F40462146F9E7001B61EB02
:1003F0000201001C41F5801300185B412018A2F592
:10040000001747EB030140EAD570B6196D4111E0C2
:100410006D084FEA360645EAC0754FEA0752001BE1
:1004200061EB0201001C41F5801149084FEA3000E0
:100430000019514132462B4603B0BDE8F04F00F0A1
:100440004DB90098012240000023D0EB020263EB7B
:10045000E073009821464FEAE074B8EB000061EBCE
:100460000401E9E783F000435BE781F0004158E7CE
:100470002DE9FE4F81EA030404F0004421F000411D
:1004800000944FF0000B23F0004350EA01045ED0CB
:1004900052EA03045BD0C3F30A54C1F30A552C4457
:1004A000A4F2F3340194A0FB0254C1F3130141F40C
:1004B0008011C3F3130343F4801301FB024400FBD8
:1004C000034E840A970A44EA815447EA8357A4FBFF
:1004D000076802958D0A05FB07854FEA932C04FBFC
:1004E0000C542705029D4FEA065847EA1637B5EB2C
:1004F00008056EEB070C870E920E47EA811742EA59
:100500008312A7FB0201B6EB0B0164EB00042B0D79
:1005100043EA0C335E1844EB1C50DA465146E7FBC5
:100520000201C5F313044FEA0B3343EA14534FEAB5
:100530000432019C43EA0603A4F10C040294009CDB
:10054000CDE900B400F0D9F803B0BDE8F08F002089
:100550000146F9E72DE9F04D81EA030404F0004B70
:1005600021F0004514464FF0000A23F0004150EA04
:10057000050220D054EA01021DD0C5F30A570246F5
:10058000C5F31303C1F31300C1F30A5640F48015F9
:1005900043F48013A7EB0608101BD64608F2FD387B
:1005A00073EB050002D308F1010801E092185B41EA
:1005B000B8F1000F03DA00200146BDE8F08D0020FD
:1005C0004FF48011064684460EE0171B73EB0507B7
:1005D00005D3121B63EB050306434CEA010C4908E3
:1005E0004FEA300092185B4150EA0107EDD152EA20
:1005F000030012D082EA040083EA0501084305D013
:10060000101BAB4106D20122002306E000224FF06E
:10061000004302E06FF0010253101AEB06004CEBAE
:10062000085110EB0A0041EB0B01BDE8F04D00F062
:1006300055B8C1F30A52C1F3130140F2FF3341F43C
:1006400080119A4202DA00200146704740F233439B
:100650009A42A2F2334202DC5242FFF752BEFFF747
:1006600041BE000030B5041E71F1000404DB4FF000
:100670000044404264EB0101141E73F1000405DBE9
:100680001C464FF00043524263EB0403994208BFFB
:10069000904230BD064C074D06E0E06840F0010393
:1006A00094E8070098471034AC42F6D3FFF782FD78
:1006B000BC270008DC270008202A06DBCB17203ADD
:1006C00041FA02F043EAE07306E041FA02F3D04057
:1006D000C2F12002914008431946704710B5141E1C
:1006E00073F1000408DA401C41F1000192185B41EB
:1006F0001A4301D120F0010010BD2DE9F04D9246C2
:100700009B4611B1B1FA81F202E0B0FA80F22032D8
:100710009046FFF7E7FD04460F4640EA0A0041EA2B
:100720000B0153465A46084313D0114653EA0100C1
:1007300019D0C8F140025046FFF7E3FD05460E46CA
:10074000504659464246FFF7CDFD084305D00120EB
:1007500004E020463946BDE8F08D0020054346EA16
:10076000E0762C4337430A986305E40AA0EB0800BF
:100770000022FD0A44EA47540A3002D5002001460F
:10078000E9E7010510196941DDE9084500196941EA
:10079000BDE8F04DA2E7FEE77047000010B501226A
:1007A0000549064801F0C6FEBDE810400122024995
:1007B000034800F0C9BE000014000020E001002042
:1007C0005800002072B6FEE72DE9F0410446876D1F
:1007D00000F082F9064694F835000025022806D07C
:1007E0008020606584F834500120BDE8F0812068E5
:1007F000016821F0160101602068416921F0800143
:100800004161206C08B9A06C20B12068016821F01A
:10081000080101602068016821F0010101600CE01D
:1008200000F05AF9801B052807D9202060650320B5
:1008300084F8350084F83450D7E720680068C00792
:10084000EED194F85C103F208840B860012084F815
:10085000350084F834500020C7E790F8351002299D
:1008600003D08021416501207047052180F83510B3
:100870000068016821F0010101600020704700005C
:1008800070B5044600F028F90546601C02D0044803
:100890000078044400F020F9401BA042FAD370BD58
:1008A000040000202DE9F84FDFF8F8A10022012410
:1008B00003254FF00F090AF1040BAAF1040E00BF43
:1008C0000B6804FA02F63340B34270D10F7907F097
:1008D0000307012F01D0022F16D187684FEA420883
:1008E00005FA08FC27EA0C07D1F80CC00CFA08FC42
:1008F0004CEA070CC0F808C04768B7430E79C6F346
:10090000001696403E4346600E79F643B6070AD07D
:10091000C7684FEA420C05FA0CF6B7438E6806FA30
:100920000CF63E43C6600E7906F00306022E10D187
:10093000D60800EB8608D8F8206057074FEAD76C36
:1009400009FA0CF7BE430F6907FA0CF73743C8F8EA
:10095000207006684FEA420C05FA0CF7BE430F7987
:1009600007F0030707FA0CF7374307604E6816F4E1
:10097000403F1CD04C4E376847F48047376036689C
:1009800022F0030706F480460096484E07EB060C5B
:10099000DCF8086897073F0F09FA07F826EA080607
:1009A000DFF80C81404503D14FF0000841E072E0D0
:1009B000DFF80081404502D14FF0010839E0DFF84F
:1009C000F880404502D14FF0020832E0DFF8EC80B9
:1009D000404502D14FF003082BE0DFF8E4804045AA
:1009E00002D14FF0040824E0DFF8D880404502D15E
:1009F0004FF005081DE0DFF8D080404502D14FF0F0
:100A0000060816E0DFF8C480404502D14FF0070821
:100A10000FE0DFF8BC80404502D14FF0080808E045
:100A2000DFF8B080404502D14FF0090801E04FF0F7
:100A30000A0808FA07F848EA0608CCF80888DAF83D
:100A400000605746D1F804C09E435FEACC2C00D525
:100A50001E433E60DBF800605F46D1F804C09E4351
:100A60005FEA8C2C00D51E433E60DEF800607746BE
:100A7000D1F804C09E435FEA8C3C00D51E433E6023
:100A8000084F083F3E68D1F804C09E435FEACC3C63
:100A900000D51E433E60521C102AFFF411AFBDE882
:100AA000F88F0000083C014044380240003001400B
:100AB000000002400004024000080240000C024016
:100AC000001002400014024000180240001C0240C6
:100AD0000020024000240240014880687047000066
:100AE0000400002002488168027811448160704748
:100AF000040000200B4810B5016841F4007101604A
:100B0000016841F480610160016841F48071016015
:100B1000032000F06FF80F2000F006F800F024F832
:100B2000002010BD003C024070B50D4D04464FF44E
:100B30007A712878B1FBF0F00A490968B1FBF0F04E
:100B400000F044FB48B9102C07D200222146501E69
:100B500000F030F800206C6070BD012070BD000016
:100B600004000020100000200A4808B5016841F484
:100B700080410160006800F4804000900548001F3B
:100B8000016841F080510160006800F080500090E1
:100B900008BD000044380240002809DB00F01F02B5
:100BA000012191404009800000F1E020C0F80011CF
:100BB00070470000F0B40E4B1B680C46C3F30223D1
:100BC000C3F10705042D00D90425191D072901D2F9
:100BD000002300E0DB1E012606FA05F1491E214034
:100BE00099409E40761E16403143F0BC00F038BF5D
:100BF0000CED00E0064900F0070208684FF6FF031D
:100C0000184040EA0220034A104308607047000081
:100C10000CED00E00000FA052DE9F84317480168E3
:100C200041F0805101600068154F00F080500126AE
:100C300000903E64FFF750FF05464FF47A78114C60
:100C400005E000BFFFF748FF401B40450DD8606836
:100C5000C003F7D57E64FFF73FFF0546464607E031
:100C6000FFF73AFF401BB04202D90320BDE8F883EA
:100C700060688003F4D50020F8E7000040380240A7
:100C800000000E42007000402DE9F0470E460500BE
:100C900065D0DFF81481D8F80000F7B200F00F003B
:100CA000B04207D288F80070D8F8000000F00F00BA
:100CB000B04254D128683D4C810712D5400703D576
:100CC000206840F4E05020602878000703D52068B1
:100CD00040F4604020602068A96820F0F0000843DC
:100CE00020602878C0072DD030496868083901286D
:100CF00012D0022813D0032811D0096889070029CF
:100D00002DDA216821F0030101432160FFF7E4FEA1
:100D1000814641F2883A0EE009688903EFE70968E5
:100D20008901ECE7FFF7D8FEA0EB0901514502D994
:100D30000320BDE8F0872068696800F00C00B0EB84
:100D4000810FEFD1D8F80010404601F00F01B142F9
:100D500007D90770006800F00F00B04201D00120F1
:100D6000E7E72878400705D52068E96820F4E050D7
:100D7000084320602878000706D52068296920F4F8
:100D8000604040EAC100206000F038F82168084A5D
:100D9000C1F30311515CC840064908600648006869
:100DA000FFF7C2FE0020C4E7003C024008380240C2
:100DB000A227000810000020080000200448054970
:100DC00000680968044AC1F38221515CC840704739
:100DD0001000002008380240B227000804480549E6
:100DE00000680968044AC1F34231515CC840704749
:100DF0001000002008380240B2270008154810B53E
:100E0000006810F00C02144813D01449042A0FD0C3
:100E1000082A0ED10F4C241F2268236802F03F02DB
:100E20005B0207D52068C0F38810A0FB010106E033
:100E3000084610BD2168C1F38811A1FB0001002301
:100E4000FFF7D2F92168C1F30141491C4900B0FB09
:100E5000F1F010BD083802400024F400001BB70078
:100E60002DE9F84F04006ED02078DFF84C93C007CE
:100E7000A9F104054AD009F104000168C1F3810118
:100E8000012908D00068C0F3810002280AD1D9F8EE
:100E90000000400206D52868800337D56068002826
:100EA000E1D033E06068B0F5803F10D0B0F5A02FFE
:100EB000286810D020F480302860286820F4802032
:100EC00028606068A8B1FFF707FE06460DE02868B5
:100ED00040F48030F4E740F480202860F7E700BF5A
:100EE000FFF7FAFD801B642873D828688003F7D5C4
:100EF0000CE0FFF7F1FD064605E000BFFFF7ECFD53
:100F0000801B6428F0D828688003F7D42078DFF8A5
:100F1000AC8280074FF0000A3ED5A748001D01684B
:100F200011F00C0F08D00068C0F3810002280BD12B
:100F3000D9F80000400207D42868800716D5E06879
:100F4000012800D112E033E1E068B8B10120C8F80F
:100F50000000FFF7C1FD064605E000BFFFF7BCFD3E
:100F6000801B0228C0D828688007F7D52868216927
:100F700020F0F80040EAC10028600DE0C8F800A0A9
:100F8000FFF7AAFD064604E0FFF7A6FD801B022836
:100F90001FD828688007F7D42078000722D5864F0D
:100FA00087486169703771B101210160FFF794FDD5
:100FB000064604E0FFF790FD801B022809D8386838
:100FC0008007F7D50EE0C0F800A0FFF785FD0646C4
:100FD00005E082E0FFF780FD801B02287DD838689D
:100FE0008007F7D42078400768D5DFF8CCB1002718
:100FF0000BF13C0BDBF80000C0000BD4DBF8001059
:1010000041F08051CBF80010DBF80000012700F020
:10101000805000906B4E3068C00510D4306840F4AA
:1010200080703060FFF758FD009005E0FFF754FD39
:101030000099401A022850D83068C005F6D55E4E97
:10104000A0686C3601280FD00528306810D020F039
:1010500001003060306820F004003060A068B8B152
:10106000FFF73AFD00900FE0306840F00100F4E730
:1010700040F004003060F7E7FFF72EFD0099411AB9
:1010800041F28830814266D830688007F4D50EE09E
:10109000FFF722FD009007E0FFF71EFD0099411ABF
:1010A00041F28830814256D830688007F4D42FB19D
:1010B000DBF8001021F08051CBF80010A069C8B314
:1010C0003D49091D0968C1F3810102294AD002285E
:1010D000504607D0C8F8600000E03CE0FFF7FCFC99
:1010E00004463BE04746C8F86000FFF7F5FC0646BB
:1010F00005E000BFFFF7F0FC801B02282BD8286812
:101100008001F7D4D4E907010843A16A2E4A4908AF
:1011100002EB0141626A41EA8211084394F82C1003
:1011200040EA0161C9F8001001203866FFF7D4FCDD
:10113000044606E03EE000BFFFF7CEFC001B02289D
:1011400009D828688001F7D534E000BFFFF7C4FC58
:10115000001B022802D90320BDE8F88F286880010F
:10116000F4D427E00128F7D0D9F80000E26900F4B0
:10117000800191421CD1226A00F03F01914217D1B7
:1011800047F6C071626A0140B1EB821F10D1A26ABA
:101190004FF0FF3300F4403103EB5202B1EB024F4A
:1011A00006D194F82C1000F07060B0EB016F01D004
:1011B0000120D1E70020CFE7043802400000474279
:1011C000800E4742007000400000FFFF10B5401E37
:1011D000B0F1807F01D3012010BD4FF0E0246061A9
:1011E0000F21601700F03CFC0020A0610720206167
:1011F000002010BD70477047F8B5016804460868C4
:10120000CA684B6910F00F0F4FF0000559D003F07A
:10121000010602F49077374365D0C10705D0D105A8
:1012200003D5616C41F001016164410705D5D9071F
:1012300003D0616C41F002016164810705D5D907D3
:1012400003D0616C41F004016164010707D502F02D
:101250002001314303D0616C41F008016164616C8D
:1012600000293AD0800604D5900602D5204600F029
:10127000A4FA20684069616CC0F38010090700D4AB
:1012800060B3204600F072FA20684069400621D51C
:101290002068143050E8001F21F0400140E800129F
:1012A000002AF5D1E06BA8B16E490165E06BFFF74C
:1012B000D4FA002811D0E06B016D01B0BDE8F04018
:1012C000084783060FD593060DD52046BDE8F840A4
:1012D00000F073BA2046FFF78EFFF8BD2046FFF7F7
:1012E0008AFF6564F8BD266B2023012E7DD1C606DA
:1012F0007BD5D60679D508684868009048694FF0D4
:101300000206400641D5E16B086840680004000C05
:10131000E8D0A28D8242E5D9E085C869B0F5807F2A
:101320002DD020680C3050E8001F21F4807140E877
:101330000012002AF5D12068143050E8001F21F077
:10134000010140E80012002AF5D12068143050E86D
:10135000001F21F0400140E80012002AF5D184F876
:101360004230256320680C3050E8001F21F0100146
:1013700040E80012002AF5D1E06BFFF725FA66631A
:10138000A08DE18D401A81B22AE0A08DE18D401A36
:1013900081B2E08D0028A5D00029A3D022680C32AC
:1013A00052E8000F20F4907042E80007002FF5D1BA
:1013B0002068143050E8002F22F0010240E8002796
:1013C000002FF5D184F84230256320680C3050E8B6
:1013D000002F22F0100240E80023002BF5D16663B5
:1013E0002046FFF707FFF8BDFFE705062BD51506DA
:1013F00029D594F841002128F5D1A068B0F5805F87
:1014000001D12069B0B1206A411C216221680078B5
:101410004860E08C401E0004000CE084E3D12068AA
:10142000C16821F08001C1602068C16841F04001BD
:10143000C160D8E7206A0088C0F308004860206ACD
:10144000801C2062E5E74006CDD55006CBD5CA68A2
:10145000204622F04002CA6084F8413000F0DCF8F7
:10146000C1E700005D17000870B5040004D094F8CF
:101470004100002510B106E0012070BD84F8405005
:10148000204600F023F8242084F841002068C16839
:1014900021F40051C160204600F0F0F92068016994
:1014A00021F4904101612068416921F02A014161E4
:1014B0002068C16841F40051C1606564202084F84F
:1014C000410084F842006563002070BD10B586B00D
:1014D000044614216846FEF7D1FE18492068884268
:1014E00029D117480021026842F480220260006876
:1014F00000F48020059012481038026842F008027B
:101500000260006800F0080005904FF44070009001
:101510000220CDE9010103200390072004906946D1
:101520000848FFF7BFF9002211462720FFF742FBCA
:101530002720FFF731FB06B010BD00000048004037
:1015400040380240000C024090F84230202B01D07D
:101550000220704721B11AB10023036300F014BACE
:101560000120704700680349884201D1FFF716B98E
:1015700070470000004800402DE9F843044690F809
:101580004100984616460D46202802D00220BDE8AC
:10159000F88385B17EB100206064212084F8410089
:1015A000FFF79AFAA6848146E684A0682027B0F562
:1015B000805F02D003E00120E9E7206910B12E46E8
:1015C00000250EE000260CE08021204600F0F7F90F
:1015D000A8B9C6B116F8010B21684860E08C401E1E
:1015E000E084E08C4B464FF00002CDF800800028EC
:1015F000EAD14FF04001204600F0E1F940B184F813
:1016000041700320C3E735F8020BC0F30800E3E79D
:1016100084F841700020BAE77047FEE7114808B52A
:10162000016841F001010160016801F001010091D0
:10163000016841F004010160016801F004010091BA
:10164000016841F080010160016801F080010091B2
:10165000016841F008010160006800F00800009096
:1016600008BD0000303802400C4810B50A4901603E
:101670004FF4E1314160002181600C22C160C0E97A
:1016800004128161C161FFF7EFFE002803D0BDE8BD
:101690001040FFF797B810BD0048004058000020E8
:1016A000FEE7FEE770477047FFF71CBA30B593B00E
:1016B00030216846FEF7E2FD14210CA8FEF7DEFD9E
:1016C00020480025016841F080510160006800F069
:1016D000805011901C48016841F44041016000684D
:1016E000022400F440401190012000900004019079
:1016F0008001CDE9064006200890B420CDE9090418
:1017000004200B906846FFF7ABFB08B172B6FEE70A
:10171000FFF782FA08B172B6FEE70CA90F2081E844
:1017200031004FF4A0500F904FF4805010900521DD
:101730000CA8FFF7A9FA002801D072B6FEE713B093
:1017400030BD00004038024000700040024801688F
:1017500041F470010160704788ED00E010B5806BC6
:101760000021C185C184FFF746FD10BD01680C3121
:1017700051E8002F22F4907241E80023002BF5D1AC
:101780000168143151E8002F22F0010241E80023E2
:10179000002BF5D1016B012909D101680C3151E809
:1017A000002F22F0100241E80023002BF5D1202168
:1017B00080F8421000210163704708B590F842108C
:1017C000222901D0022008BD82684FF480539A423A
:1017D00001D1016921B1816A9A421BD04AB10AE064
:1017E0000268816A5268C2F308020A80816A891C11
:1017F00008E0026972B10268526802F07F020A7062
:10180000816A491C8162C18D491E0904090CC18588
:1018100003D01BE002685268F1E70168CA6822F051
:101820002002CA600168CA6822F48072CA60016836
:101830004A6922F001024A61202180F84210002109
:101840004163026B012A03D0FFF78CFE002008BD24
:10185000016301680C3151E8002F22F0100241E8C9
:101860000023002BF5D101680A68D20602D50A6868
:1018700049680091818DFFF7BDFCE7E770B504462C
:1018800000680169E26821F4405111430161216956
:10189000A068E26908436169114308432168CA6886
:1018A00049F20C639A430243CA6020684169A26905
:1018B00021F440711143416131492068884202D0CE
:1018C0003049884202D1FFF789FA01E0FFF776FA42
:1018D000E2690023192164253226B2F5004F6268BF
:1018E00028D0A0FB0101930F9200FEF77DFC01467A
:1018F000B0FBF5F06FF01802504301EB800006EBEF
:101900000010B0FBF5F000F0F002B1FBF5F002EBD7
:101910000012B1FBF5F06FF01803584301EB8000A3
:1019200006EB0010B0FBF5F000F00F00216810444A
:10193000886070BDA0FB010192185B41FEF754FC6A
:101940000146B0FBF5F00201B1FBF5F06FF01803B2
:10195000584301EB800006EBC000B0FBF5F000F04F
:10196000F80002EB4002B1FBF5F0584301EB8000B8
:1019700006EBC000B0FBF5F000F00700D6E7000072
:10198000001001400014014081628285C28500215F
:101990004164222180F84210016921B10168CA68BE
:1019A00042F48072CA6001684A6942F001024A61E9
:1019B0000068C16841F02001C160002070472DE936
:1019C000F843984617460D460446089E24E0701CCE
:1019D00022D0FFF781F8A0EB0800B0421AD8CEB1B0
:1019E0002068C168490717D5802D15D0402D13D028
:1019F0000168C94309070FD40168002540680090B9
:101A00002046FFF7B3FE0820606484F840500120B0
:101A1000BDE8F8830320FBE72068006835EA000092
:101A200004D00020B842D2D00020F1E70120F9E72D
:101A30000148FFF7E1BB000058000020FEE700006E
:101A40000FB4054B10B503A9044A029800F0EAF858
:101A500010BC5DF814FB00004D2600085400002067
:101A60000907090E002804DB00F1E02080F80014CB
:101A7000704700F00F0000F1E02080F8141D70475F
:101A800002E008C8121F08C1002AFAD17047704747
:101A9000002001E001C1121F002AFBD170470000A5
:101AA0002DE9FF5F82B00021DDE90430020DDDF891
:101AB00040B0034318D044F61050A2F2FF32424324
:101AC0001514119801281FD0A5EB0B00401C5FEAEC
:101AD000000A4FF000064E4FDFF83891B0465046EE
:101AE00015D5CAF1000413E0119801244AA3012876
:101AF00001D16FEA0B010298119AC0E90031C0E9E7
:101B0000024206B0BDE8F09FCBF10000DFE70446DB
:101B10000021404A491842EB0450CDE9001012E080
:101B2000E00707D032463B4640464946FEF7A0FC58
:101B30008046894632463B4610461946FEF798FCD9
:101B400006460F466410002CEAD1DDE90401DDE908
:101B50000023BAF1000F06DAFEF78AFC42464B4634
:101B6000FEF786FC05E0FEF7F5FC42464B46FEF725
:101B7000F1FC04460E460022284BFEF773FD03D805
:101B80004FF0FF30014607E00022254B204631464A
:101B9000FEF7C7FBFEF74DFD102409E0002C0ADB21
:101BA0000A220023FEF720FB039B30321A55641EE5
:101BB00050EA0102F2D1641C039AC4F111031444E7
:101BC000119A012A03D0012208430DD10AE00843EB
:101BD00004D000204FF0110B119072E7A3EB0B051E
:101BE0006D1E0DE05B4504DD4FF0000205F10105BF
:101BF00004E003DA4FF00002A5F10105002AECD061
:101C000002981199C0E90231C0E9004579E7000066
:101C1000000014400000F03F300000000000F043DE
:101C20000000E03F2DE9FF4F95B09A4688460646F2
:101C30000025EEE1252877D100242746F94A012125
:101C4000039400E0044316F8013F203B01FA03F03F
:101C50001042F7D130782A2811D06FF02F03307856
:101C6000A0F13002092A16D8039A44F0020402EBCC
:101C7000820203EB42021044761C0390EFE758F80F
:101C8000042B0392002A03DA504244F400540390D8
:101C900044F00204761C30782E2816D116F8010F75
:101CA00044F004042A280DD06FF02F023078A0F100
:101CB0003003092B09D807EB870302EB4303C7184E
:101CC000761CF3E758F8047B761C30786C280FD02C
:101CD00006DC4C2817D068280DD06A2814D104E0FF
:101CE000742810D07A280FD10DE044F400140AE0D3
:101CF00044F4801401E044F440147278824202D12A
:101D000004F58014761C761C307866280BD013DC22
:101D1000582877D009DC002875D04528F6D0462809
:101D2000F4D047281AD193E118E0632835D064280D
:101D300079D0652812D18BE1702873D008DC672830
:101D4000F1D069286FD06E280DD06F2806D1ACE095
:101D500073282CD0752874D0782853D05246179900
:101D600090476D1C54E1C4F30250022809D00328A7
:101D70000DD0D8F8001004280DD00D6008F104082B
:101D800046E1D8F80010EA17C1E90052F6E7D8F8A2
:101D900000100D80F2E70D70F0E718F8041B8DF8C5
:101DA000001000208DF80100EB46012003E058F8F8
:101DB00004BB4FF0FF3061074FF0000102D40DE08B
:101DC00009F101018946B9420FDA8145F8DB1BF8B8
:101DD00009100029F4D108E009F101018946814286
:101DE000FADB1BF809100029F6D103985346A0EB43
:101DF000090721463846179A00F080FA284400EB7C
:101E0000090507E044E008E10DE01BF8010B52462C
:101E100017999047B9F10109F7D253462146384640
:101E2000179AF2E039E00A21C4F302524FF0000B96
:101E30000091022A06D058F8040BC117032A09D0D2
:101E40000AE023E008F1070020F00702F2E80201AF
:101E5000904605E000B2C117042A01D140B2C11773
:101E6000002906DA0A460021404261EB02012D22D8
:101E700002E0220504D52B228DF80420012203E084
:101E8000E20701D02022F7E7914657E00A2100E05F
:101E900010214FF0000B00910BE010214FF0000BD0
:101EA00044F004040827009103E008204FF0000BE1
:101EB0000090C4F30252022A05D058F8040B002106
:101EC000032A08D008E008F1070020F00702F2E832
:101ED0000201904603E080B2042A00D1C0B24FF064
:101EE000000922072AD53278702A07D0DDF800C011
:101EF0008CF0100C5CEA0B0C05D00EE040228DF843
:101F00000420012208E050EA010306D030238DF8B6
:101F100004308DF8052002229146009B83F00803CF
:101F200053EA0B030AD150EA010201D1620705D539
:101F300030228DF804204FF001097F1E3278582A94
:101F400004D039A20C920CAA02920BE03BA2F9E752
:101F50005B46009AFEF748F90C9B9B5C029A521E66
:101F60000292137050EA0102F2D1029804A9081AF1
:101F700000F1200B600702D524F4803400E0012733
:101F80005F4502DDA7EB0B0000E0002000EB0B013A
:101F9000009003984944401A0390E00306D4534646
:101FA0002146179A039800F0A9F90544002706E096
:101FB00001A85246C05D179990476D1C7F1C4F4584
:101FC000F6DBE0030CD553462146179A039800F040
:101FD00095F9054404E030205246179990476D1C4E
:101FE0000099481E00900029F5DC08E0029802994B
:101FF00052460078491C0291179990476D1CBBF11D
:102000000001ABF1010BF1DC5BE100F065F9054487
:10201000761C307800287FF40DAE19B02846BDE854
:10202000F08F000009280100303132333435363763
:102030003839616263646566000000003031323314
:1020400034353637383941424344454600000000B4
:10205000600700D4062708F1070020F00700F0E829
:102060000223804603F0004C5FEA0C0001D097A0E9
:1020700009E0200501D596A005E0E00701D095A074
:1020800001E0AFF24C001390307823F00043652854
:102090000CD006DC452809D046281DD047287FD122
:1020A0003BE0662818D067287AD136E00021112F4E
:1020B00001DB112000E0781CCDE9000104A90CA887
:1020C000FFF7EEFCDDE90D010C9A4FF0000B07F174
:1020D0000109109200914EE04FF000400097CDE9C9
:1020E000011004A90CA8FFF7DBFCDDE90D020C9B35
:1020F0000F994FF0000B91461093009211B9791C83
:1021000000EB0109B7EB090003D4C0F1FF3B07F175
:102110000109A9EB0700019042E0012F00DA012735
:102120000021112F01DD112000E03846CDE900012A
:1021300004A90CA8FFF7B4FCDDE90D010C9A00918D
:102140004FF0000BB946109221070FD4009A4A4570
:1021500003DA914601E0A9F10109B9F1010F05DDAA
:10216000109AA9F10101515C3029F4D0B84202DA89
:1021700010F1040F03DA0121CDE9011010E000286D
:1021800003DC8344A9EB000102E0411C494500DD6A
:102190008946A0EB0B00401C01904FF000400290DC
:1021A000200705D40198484502DB4FF0FF3001902D
:1021B00000208DF84B0002980DF14B07B0F1004F55
:1021C00025D002200C902B200D90029800280CDACC
:1021D000404202902D200D9007E00A210298FEF760
:1021E0006BF83031029007F8011D0C99481E0C90D5
:1021F0000029F2DC02980028EFD1791E0D980870B2
:10220000307800F0200040F0450007F8020D11A8DA
:10221000C01BC01D02901398007800B1012000EB94
:102220000901019801EBE071029801440398401AFA
:10223000401E0390E00306D453462146179A0398A4
:1022400000F05CF805441398007818B152461799CD
:1022500090476D1CE00323D553462146179A0398F7
:1022600000F04CF805441BE0BBF1000F07DB0098C1
:10227000584504DD1098179910F80B0001E01799E4
:1022800030205246904701980BF1010B401E05F19A
:102290000105019004D12E205246179990476D1CDC
:1022A000B9F10001A9F10109DEDC05E017F8010B25
:1022B0005246179990476D1C0299481E02900029BA
:1022C000F4DC53462146179A03989EE62D00000041
:1022D0002B000000200000002DE9F04104460025FD
:1022E0001E461746880404D405E039462020B0472E
:1022F0006D1C641EF9D52846BDE8F0812DE9F0413A
:10230000044600251E469046C80301D5302700E04C
:102310002027880404D505E041463846B0476D1CA7
:10232000641EF9D52846BDE8F081000000B585B0EF
:10233000684600F029F8684600F00CF8044A40238B
:10234000002102F1400000F05BF805B000BD000084
:10235000A00100200A4902880A8042884A808288B7
:102360008A8082798A71C279CA7182688A60C268F9
:10237000CA600069086103490120087070470000C5
:102380008C01002050000020002101804FF6FF72D8
:1023900042808280FF228271C2718160C1600161CE
:1023A0007047000013B50146002301AA024800F05F
:1023B00031F801981CBD0000E00100208AB210B580
:1023C00001464FF0FF330248FFF7D6F8002010BD5A
:1023D00058000020C2681144C160C268416901E030
:1023E000521AC2609142FBD97047826811448160E1
:1023F0008268416901E0521A82609142FBD97047BC
:1024000042600022027041708260C0E90323436190
:10241000104670472DE9F04704464FF000079946F3
:102420005FEA01081646384605D02178890704D0AE
:102430000627106075E003275EE0D4E90410401A17
:102440003168814202D90727306080B1207840F09E
:10245000080020706169E06832680D1A6178AA424C
:1024600017D841B1012909D0022941D10CE02078C7
:1024700020F0080054E06168014403E06168520004
:1024800001EB4001404631E06168920001EB8001C0
:10249000F8E721B101290ED0022929D119E061689C
:1024A0002A4601444046FDF7D0FE30686168421B71
:1024B00008EB05001AE061686A0001EB4001404644
:1024C000FDF7C3FE30686168401B420008EB450021
:1024D0000CE06168AA0001EB80014046FDF7B5FE03
:1024E00030686168401B820008EB8500FDF7ADFE97
:1024F000207820F008002070B9F1000F11D1207869
:102500000B2811D040F00200207020463168FFF700
:1025100061FF2069316808442061207820F00200C2
:1025200020703846BDE8F0870227FAE74169006964
:10253000081A70472DE9F0475FEA0108044616467D
:102540004FF0000705D0207810F0050F03D00427C6
:1025500079E0032777E040F0040020702069B04262
:102560006CD36169A0680D1A6178AE4249D921B176
:10257000012915D002295DD12BE061682A46084463
:102580004146FDF762FE29462046FFF72EFFD4E9BB
:1025900001010844A6EB050908EB05014A4614E0D1
:1025A00061686A0001EB40004146FDF74EFE294696
:1025B0002046FFF71AFFD4E9010100EB4100A6EB2A
:1025C00005094FEA490208EB4501FDF73EFE494681
:1025D0002DE06168AA0001EB80004146FDF735FE61
:1025E00029462046FFF701FFD4E9010100EB8100F5
:1025F000A6EB05094FEA890208EB8501FDF725FEE8
:10260000E5E721B1012905D0022913D107E061686E
:10261000084408E06168720001EB400003E0616873
:10262000B20001EB80004146FDF70FFE3146204627
:10263000FFF7DBFE2069801B206100E00527207882
:1026400020F0040020703846BDE8F08713B54FF045
:10265000FF33012269460248FEF78EFF00981CBD39
:1026600058000020FEF746FAFFF720F8FEF7D6FFE5
:10267000FEF7FAFF00F06EF800260B4C0B4F0C4DE6
:1026800000F01AF8207858B1267038682860FDF7F5
:1026900000FE41EC100B07A053EC102BFFF7D0F914
:1026A0006420FEF7EDF8EBE720000020A0000020FA
:1026B0000000002025660A002DE9F043234AA1B05E
:1026C00080219268684690472090021E4FF00104D6
:1026D00004D01E4869462430FFF72CFF1B4D082606
:1026E0000027DFF86C900B3518482430FFF71EFFE9
:1026F000082828D31548012320AA694624302096AB
:10270000FFF788FE9DF80000552813D19DF803803F
:102710008DF803700821684600F036F8404509D16D
:102720009DF802009DED010A09EB800101ED010A0F
:10273000445500E020940548002320AA694624302F
:10274000FFF768FED0E721B0BDE8F0831400002059
:10275000A000002010B5FFF7E9FD07480549012258
:102760004160064981600146BDE810400448FEF71B
:10277000EBBE0000BD23000814000020A5230008C4
:1027800058000020002070470246002004E000BFEF
:1027900012F8013B1844C0B2491EF9D270470846EE
:1027A000704700000000000000000102030406075B
:1027B000080900000000010203040000DC270008F3
:1027C0000000002058000000801A0008342800088B
:1027D00058000020A0050000901A0008000000002A
:1027E0000100000010000000000000000024F400C0
:1027F000000000009F270008852700080000000057
:1028000000000000000000000000000000000000C8
:1028100000000000000000000C010020000000008B
:1028200000000000800000008000000000000000A8
:0428300000000000A4
:04000005080001AD41
:00000001FF
